:1000000015C071C270C26FC26EC26DC26CC26BC2CB
:100010006AC269C268C267C266C265C264C263C29C
:1000200062C261C2004000440004E80011271FBF03
:10003000CFE3D1E0DEBFCDBFC4E2D0E440E415C0E1
:10004000B991A99139912991099107FD0AC0F991B6
:10005000E991E050F04C51915D93A217B307D9F7A5
:1000600004C01D93A217B307E1F7CB32D40741F7C1
:0800700040D100C0F894FFCF5D
:100078002F933F93CF93DF93CDB7DEB7CA50D10B01
:100088000FB7F894DEBF0FBFCDBFC65FDF4F9883B1
:100098008A93C950D040A82FB92F4D915D916D9189
:1000A8007C91411751076107710721F444E259ED2A
:1000B8006BE577E0972F862F752F642F2DE133EFAF
:1000C80041E050E0D7D1CF5FDF4F2993399349936F
:1000D8005883C450D040462F572F682F792F1F932D
:1000E8001F9381E48F9387EA8F93972F862F752F1D
:1000F800642F5BD10F910F910F910F91CB5FDF4F61
:100108006993799389939883C850D0404FEF4F9360
:100118004F9344EF4F934CEE4F93CF5FDF4F69916E
:10012800799189919881C450D0403FD10F910F9116
:100138000F910F91462F572F682F792FCB5FDF4FE5
:1001480089919991A991B881C850D040480F591FF9
:100158006A1F7B1F77FF04C04150510B610B704829
:10016800C75FDF4FA991B881CA50D0404D935D93C6
:100178006D937C93A350B040842F952F9F77C65FD3
:10018800DF4F0FB7F894DEBF0FBFCDBFDF91CF9120
:100198003F912F9108956CDF089580E490E068DF27
:1001A8000895482F592F60E070E0E0E4F0E04193B3
:0C01B800519361937083E350F040089570
:1001C400CF93DF93C4E1D0E0EADF66E070E068D16A
:1001D400E82FF92FE052FB4B408142B943ED50E345
:1001E40041505040E9F700C00000C150D10B61F705
:1001F400CAE0D0E0D4DF66E070E052D1E82FF92FF6
:10020400E052FB4B408142B987EA91E6815090402D
:10021400E9F700C00000C150D10B61F7C5E0D0E0A0
:10022400BEDF66E070E03CD1E82FF92FE052FB4BD3
:10023400408142B94BE752E941505040E9F700C0D0
:100244000000C150D10B61F7AADFC6E0D0E06C2FEB
:100254007D2F26D1E82FF92FE052FB4B408140B986
:100264008BE792E981509040E9F700C0000097DFE6
:100274006C2F7D2F15D1E82FF92FE052FB4B4081D5
:1002840042B94BE752E941505040E9F700C0000041
:1002940086DF6C2F7D2F04D19927E82FF92FE052A8
:1002A400FB4B408142B94BE752E941505040E9F7DA
:1002B40000C0000045E050E0E82FF92FE052FB4B6E
:1002C400608187EA91E681509040E9F700C0000020
:1002D40012B987EA91E681509040E9F700C0000026
:0E02E40062B94150510B69F7DF91CF91089537
:1002F200CF93DF9300D000D0CDB7DEB74FE741B93F
:1003020012B92898389A48EC50E060E070E0CF5F6C
:10031200DF4F4993599369937883C450D040209911
:100322000AC04FDFCF5FDF4F1993199319931883D8
:10033200C450D04020C0CF5FDF4F4991599169919D
:100342007881C450D0404D3351076107710798F04E
:10035200972F862F752F642F26E030E040E050E083
:100362004FD0462F572F682F792FE42FF52FE652C3
:10037200FB4B408142B967E97AE361507040E9F78B
:1003820000C00000CF5FDF4F499159916991788198
:10039200C450D0404F5F5F4F6F4F7F4FCF5FDF4FF3
:1003A2004993599369937883C450D040F9DEB7CF0B
:1003B200ADB7BEB7AD5FBF4F2F933F932D913D9128
:1003C2004D915C91EE27FF27AA27BB2708C0A20FF9
:1003D200B31FE41FF51F220F331F441F551F9695AD
:1003E20087957795679598F37040A9F7805090406C
:1003F20091F76A2F7B2F8E2F9F2F3F912F91089578
:10040200A1E21A2FAA1BBB1BEA2FFB2F0DC0AA1FAA
:10041200BB1FEE1FFF1FA217B307E407F50720F06B
:10042200A21BB30BE40BF50B661F771F881F991FE6
:100432001A9569F76095709580959095262F372FBC
:0E044200482F592F6A2F7B2F8E2F9F2F089542
:10045000AA1BBB1B51E107C0AA1FBB1FA617B707EA
:1004600010F0A61BB70B881F991F5A95A9F7809506
:0C0470009095682F792F8A2F9B2F0895FC
:10047C00052F97FB16F4009522D057FD05D0BBDF56
:10048C0007FD02D046F41BC0509540953095219540
:08049C003F4F4F4F5F4F0895E1
:1004A40097FB072F16F4009506D077FD08D0CEDF12
:1004B40007FD05D03EF4909581959F4F0895709562
:0604C40061957F4F0895D1
:1004CA0090958095709561957F4F8F4F9F4F0895B6
:0604DA00010204402010A5
:0604E000084149555D775B
:0204E6008CCDBB
:0404E800010000000F
:00000001FF
